:020000040000FA
:10000000700400206D020000710200007302000005
:100010007502000077020000790200000000000075
:100020000000000000000000000000007B02000053
:100030007D020000000000007F020000A505000016
:1000400083020000B103000083020000830200006D
:10005000830200008302000083020000830200008C
:10006000830200008302000083020000830200007C
:10007000830200008302000083020000830200006C
:10008000830200008302000083020000830200005C
:10009000830200008302000083020000830200004C
:1000A000830200008302000083020000830200003C
:1000B000830200008302000083020000830200002C
:1000C000830200008302000083020000830200001C
:1000D000830200008302000083020000830200000C
:1000E00083020000830200008302000083020000FC
:1000F00083020000830200008302000083020000EC
:1001000083020000830200008302000083020000DB
:1001100083020000830200008302000083020000CB
:1001200083020000830200008302000083020000BB
:1001300083020000830200008302000083020000AB
:1001400000000000000000000000000000000000AF
:10015000830200008302000083020000830200008B
:10016000000000000000000000000000000000008F
:10017000000000000000000000000000000000007F
:10018000000000000000000000000000000000006F
:10019000000000000000000000000000000000005F
:1001A000000000000000000000000000000000004F
:1001B000830200008302000083020000830200002B
:1001C000830200008302000083020000830200001B
:1001D000830200008302000083020000830200000B
:1001E00083020000830200008302000083020000FB
:1001F00083020000830200008302000083020000EB
:10020000830200008302000083020000000000005F
:1002100083020000830200008302000083020000CA
:1002200083020000830200008302000083020000BA
:1002300083020000830200008302000083020000AA
:10024000830200008302000083020000830200009A
:10025000830200008302000083020000830200008A
:1002600083020000830200008302000000F00AB84D
:10027000FEE7FEE7FEE7FEE7FEE7FEE7FEE7FEE756
:10028000FEE7FEE700F002F800F02CF80AA090E884
:10029000000C82448344AAF10107DA4501D100F041
:1002A00021F8AFF2090EBAE80F0013F0010F18BFE2
:1002B000FB1A43F001031847C40A0000D40A0000E7
:1002C0000023002400250026103A28BF78C1FBD85F
:1002D000520728BF30C148BF0B6070471FB51FBD14
:1002E00010B510BD00F029F81146FFF7F7FF00F038
:1002F0002BFA00F047F803B4FFF7F2FF03BC00F05D
:100300004FF8000072B6704762B67047EFF3108086
:1003100072B6704780F31088704730BF704702484C
:100320000249014A024B704770000020700400200F
:1003300070000020704770477047754600F02CF839
:10034000AE4605006946534620F00700854618B0C2
:1003500020B5FFF7E4FFBDE820404FF000064FF066
:1003600000074FF000084FF0000BAC46ACE8C009A6
:10037000ACE8C009ACE8C009ACE8C00921F007014D
:100380008D46704710B50446AFF300802046BDE8A7
:100390001040FFF7B0BF0000004870470000002089
:1003A00001491820ABBEFEE726000200704700009E
:1003B00080B582B045F2FC30C4F200000068C0068F
:1003C000002803D5FFE700F085F932E000F092F94C
:1003D00041F24800C4F203000068C04300210191CB
:1003E00000F07CFB49F69A12C9F6991249F6991366
:1003F000C3F6997300F0C4FB46F60072C0F2814266
:1004000048F6C573C3F6A17300F0BAFB019A4FF02A
:10041000804300F0DBF900F033FB40F26401C2F2EC
:100420000001086040F26801C2F20001012008608A
:10043000FFE745F21C41C4F200011020086002B041
:1004400080BD000081B04EF27001C4F20F01009136
:10045000086840F000400860086840F400600860E8
:100460004EF26002C4F20F02106820F4F8601060CF
:10047000106800F5A8601060086820F0700008603F
:1004800008680860086820F400500860086840F0B8
:10049000804008600868092262F39C500860FFE70A
:1004A0004EF25000C4F20F0000684006002801D44C
:1004B000FFE7F5E74EF27001C4F20F01086820F47F
:1004C0000060086001B070474EF20810C4F20F00DF
:1004D000016841F002010160006840F26001C2F26F
:1004E0000001086045F20041C4F20001086840F0D4
:1004F0002000086045F21C51C4F20001086840F079
:100500003000086045F20441C4F20001086820F0A0
:100510001000086045F20841C4F20001086840F08C
:100520001000086045F21C41C4F200011020086070
:1005300045F21041C4F20001086840F01000086064
:100540004EF20041CEF200010868012262F34F3002
:1005500008604EF20011CEF20001086840F002007F
:10056000086070474EF20810C4F20F00016841F0B5
:1005700020010160006840F26001C2F200010860E1
:1005800045F20041C4F20201086840F00E00086024
:1005900045F21C51C4F20201086840F00E000860E8
:1005A000704700004EF21001CEF20001086820F002
:1005B0000100086040F26400C2F2000000684728B1
:1005C00007D3FFE745F2FC31C4F2020100200860C6
:1005D00027E040F26400C2F20000006846280FD80D
:1005E000FFE740F26400C2F2000000680A2807D367
:1005F000FFE745F2FC31C4F202010E2008600FE073
:1006000040F26400C2F200000068092807D8FFE742
:1006100045F2FC31C4F2020102200860FFE7FFE767
:10062000FFE74EF21401CEF2000140F69F70086021
:100630004EF21801CEF20001002008604EF21001C7
:10064000CEF20001086840F0010008607047000029
:100650004EF21001CEF20001002008604EF21403A9
:10066000CEF2000342F6FF42C0F231121A604EF29F
:100670001802CEF2000210604EF62052CEF20002B6
:100680001068022363F35F701060072008607047F2
:100690004EF20461C4F20F01086840F002000860E5
:1006A00041F20C01C4F203010020086041F2000194
:1006B000C4F20301086041F20402C4F203021168AB
:1006C00041F00201116041F23801C4F203010860F7
:1006D0007047000041F20C01C4F2030100200860E1
:1006E00041F22802C4F203024FF0FF3010600120F3
:1006F0000860704741F20C01C4F203010020086059
:100700007047000041F20C01C4F2030100200860B0
:1007100041F22802C4F2030240F28F101060086810
:1007200040F001000860FFE741F24800C4F2030016
:10073000006808B1FFE7F7E741F20C01C4F20301DA
:10074000002008607047000080B582B00020019052
:10075000FFF7BAFEFFF706FFFFF774FEFFF778FF1B
:10076000FFF796FF45F2FC31C4F20001086820F063
:100770002000086040F26401C2F200014FF4C8702A
:100780000860FFE740F26801C2F200010020086043
:1007900045F2FC31C4F200010091086820F020000D
:1007A0000860086840F020000860FFF7ABFF009980
:1007B000086820F020000860FFE740F26800C2F2FD
:1007C0000000006808B9FFE7F7E7DBE72DE9C04163
:1007D00030B4DFF8A4C23CEA111418BF3CEA131489
:1007E00000F0ED801CEA111481EA030544EAD57497
:1007F00018BF1CEA131500F0C880A4EB050404F12F
:100800007F7404F500344FF0004545EAC12145EA04
:10081000C32341EA505143EA52534FEAC0204FEA02
:10082000C222994208BF904200F09D804FEA1365B2
:100830000FF24416765D4FEA134506FB05F7C7F144
:10084000807706FB07F74FEAD737A7FB03687642A6
:10085000A7FB06CEC8F5803838BFA8F1010807FB12
:1008600008E6A6FB028C4FF0000EE6FB03CEDCF19F
:10087000000CCEF1004E38BFAEF1010EA6FB0C58B5
:100880004FF00007E6FB0E87A1FB08C6A0FB07CED2
:1008900016EB0E064FF0000545F10005E1FB07657C
:1008A00015F1E04E7EBFA4F580345FEA46066D4147
:1008B00016F1800745F100054FEA172747EA05675B
:1008C0004FEA15254FEA0666A6F1DE46B6F1805FCF
:1008D00020D9384605EBC47124F0010C01EB0C1152
:1008E000BCF1FE6F02D8F0BCBDE8008124425CBFC1
:1008F00001F5801E9EEAC47F02D4F0BCBDE80081F1
:10090000244200F13980A1F1C041F0BCBDE80041B2
:1009100000F02EBA4FEAD02040EA41504FEAD121F0
:100920004FEAD22242EA43524FEAD323A7FB028680
:1009300007FB036605FB02661EEA0E0F58BFA6EB17
:100940000056B6EB00564FEA520E4EEAC37E18EB45
:100950000E0E56EB530EBCD518EB02085E417F1C01
:1009600055F10005B5E74FF480154FF000074FF043
:1009700000064FF00008ACE701F1C04101F0004172
:100980004FF00000F0BCBDE800810CEA131511EA3D
:100990000C1F00D00CE013EA0C1F00F026804FF073
:1009A000000081EA030101F00041F0BCBDE80081D4
:1009B000F0BCBDE8004181EA030100F0D9B9F0BC08
:1009C000BDE8004170B500F085F900BF097EFC3E2E
:1009D00000F007B84FF0000081EA030101F0004188
:1009E000704781EA030100F0C3B9F0BCBDE80041E3
:1009F00022494FF000007047FFFDFBF9F7F5F4F2D4
:100A0000F0EEEDEBE9E8E6E4E3E1E0DEDDDBDAD8A9
:100A1000D7D5D4D3D1D0CFCDCCCBCAC8C7C6C5C407
:100A2000C2C1C0BFBEBDBCBBBAB9B8B7B6B5B4B31E
:100A3000B2B1B0AFAEADACABAAA9A8A8A7A6A5A409
:100A4000A3A3A2A1A09F9F9E9D9C9C9B9A999998CD
:100A50009797969595949393929191908F8F8E8E70
:100A60008D8C8C8B8B8A89898888878786858584FD
:100A700084838382828181800000FF070000F87FE9
:100A80004FEA1153A3F58063D3F11E03A8BFD3F13E
:100A9000200C08DB4FF0004242EAC12252EA5052D9
:100AA00032FA03F0704709420BD4102BC4BF002068
:100AB000704703F5787CBCF1FF3F05D04FF0FF3065
:100AC00070474FF00000704770B500F003F900BFA9
:100AD0004992248000207047F0E700007FEAE1722D
:100AE00002D1101A62EB0101B1FA81F30B3B24D35E
:100AF000994012D1B0FA80F310FA03F108BF7047A1
:100B0000C3F11D0303F5406303EBC2234FEAD12277
:100B10004FEA415002EB03517047C3F1200C20FA19
:100B20000CFC41EA0C019840C3F1320303F5406329
:100B300003EBC22301EB03517047C3F1320C0CF5F8
:100B4000406C0CEBC22210B5C3F10004C4F1200EBE
:100B500001FA0EFC21FA04F100FA0EF3E04040EA3B
:100B60000C00BDE8104001EB025138BF7047401C3B
:100B700041F100015B0008BF20F001007047000058
:100B800070B5DFF848C11CEA111E1EBF1CEA131520
:100B90009EEA0C0F95EA0C0F00F06F8081EA0304C7
:100BA0004EEAD47EAE4421EA4C1123EA4C1341F4C0
:100BB000801143F48013AEF17F7EA1FB024CA0FBB9
:100BC0000365361955EB0C05A1FB034C4CF10003F2
:100BD000A0FB021C16EB0C06654153F10003094211
:100BE00018BF46F0010613F4007F0BD14FEA033122
:100BF0004FEA053041EA155140EA165034036FF0D0
:100C000003020AE04FEAC3214FEAC52041EA5551E9
:100C100040EA5650F4026FF0020202EB2E4201EB62
:100C2000025585EACE710AD05FEA440C18BF24F061
:100C3000004450F1000041F1000120EAD47040F27C
:100C4000FE7C624500D270BDA84214BF4FF08044C4
:100C50004FF04044002E08BF0024BEF1806FA8BFB3
:100C6000A1F1C041BDE8704080F2828001F1C04135
:100C700001F000414FF0000070470CEA13159EEAA6
:100C80000C0F18BF95EA0C0F06D081EA030E4FF047
:100C900000000EF0004170BD00F01CF88900013E1C
:100CA00000F007B800F009B84FEA430C5FEA5C5C5B
:100CB00008D081EA030100F05BB84FEA410C5FEA1B
:100CC0005C5CF6D102494FF0000070470000FF075E
:100CD0000000F87F0EF1020E2EF0030E5EF8046B9A
:100CE000364205D4012A43EB030515F5001F12D83F
:100CF000012841EB010C1CF5001F0CD80ED14FEA66
:100D0000D17C0CEB4C0C0CF1020C15F5001F08BF4C
:100D10004CEBD37C04E04FF0080C01E04FEAD37CAD
:100D20000CEB4C0526FA05F606F00706B6F1040CA6
:100D300006D20EEB860CBDE870404CF0010C60470B
:100D4000DFE80CF0090B02024FF00041A1F5002191
:100D50004FF0000070BD19461046012851EB010408
:100D600018BFD4F5001484BF002001F0004170BD0D
:100D70000808A0F500114FEA310170478C0D000002
:0C0D80000000002070040000C002000011
:040000050000026D88
:00000001FF
